:100000000C9434000C9451000C9451000C94510049
:100010000C9451000C9451000C9451000C9451001C
:100020000C9451000C9471070C9451000C945100E5
:100030000C9451000C9451000C9451000C945100FC
:100040000C9451000C9451000C94A8070C9451008E
:100050000C9451000C9451000C9451000C945100DC
:100060000C9451000C94510011241FBECFEFD4E02A
:10007000DEBFCDBF11E0A0E0B1E0E2EAF2E102C0F4
:1000800005900D92A230B107D9F721E0A2E0B1E0CE
:1000900001C01D92A234B207E1F70E9469000C94DE
:1000A0002C090C94000084B1876084B98AB1806DFA
:1000B0008AB98BB18C608BB987B187B980917C008C
:1000C000856680937C0080917A00876E80937A00A9
:1000D0000895F8940E94E7070E943E070E94DE08F8
:1000E0000E9453000E94960778940E941D080E9467
:1000F000B1000E94E30680910001813011F40E945A
:100100006E030E940E050E94EC060E94BB000E9436
:1001100009080E94AF0780910101813061F70E94B8
:100120004F08E9CF833008F080E0809303011092FC
:10013000020140E060E084E090E00E94FA08259A25
:100140002D9883E00E94620788E00E94620780E0A9
:100150000E94620780E00E944F0786E080930401BE
:10016000089510920301109202011092040183E09D
:10017000809305010895F89482E00E944F0782E081
:100180000E9468079C01909104012730304080F064
:1001900080910501837080930501963049F4833086
:1001A000F1F480910201833018F48F5F8093020193
:1001B00080910501833050F49030A1F0963009F41D
:1001C000ACC19A3009F45EC20E949200E091040131
:1001D000EB3058F5F0E0E25DF64F0C9426091092F2
:1001E0000201E6CF82E00E94FA07803021F083E02E
:1001F000809304011AC083E00E94FA07803011F056
:1002000082E0F6CF81E00E94FA07803031F081E091
:1002100080930401259A2D9A08C00E94FA07803025
:1002200021F0809105010E949200789408958091B8
:100230000D0190910E01891B990B8430910509F4F1
:1002400045C0883491050CF045C0893B2FEF9207DB
:100250000CF444C097FD019695958795AC014259E1
:100260006EE670E0681B80E090E00E94FA089091D2
:100270000D01943620F480910E01843698F188E0C7
:100280000E944F0788E00E9468078538934060F01D
:1002900087E08093040180E00E94620780E00E9472
:1002A0004F0788E00E94620780910501833008F0C3
:1002B000BCCF28988BB18F728BB9259A2D9886E088
:1002C0008093040188E00E946207AFCF4EE680E091
:1002D00090E0C6CF41E983E290E0C2CF4BE48DEDE0
:1002E0009FEFBECF9E3240F08E3260F4259A2D985B
:1002F00082E080930401D5CF8E3220F0259A2D988C
:1003000083E0F7CF80910B018E3220F0259A2D9853
:1003100084E0EFCF80910C018E3230F2259A2D9837
:1003200085E0E7CF4EE66CE382E090E00E94FA08B9
:1003300090910D0180910E019E3238F08E3208F4BA
:10034000A8C181E08093040114C0843668F188E07C
:100350000E944F0788E00E9468078538934088F024
:1003600087E08093040180E00E94620780E00E94A1
:100370004F0783E00E94620788E00E946207259A87
:100380002D9A80910501833008F04FCF40E060E066
:1003900084E090E00E94FA0883E00E94620788E00F
:1003A0000E94620786E024CF9D3209F475C18D3228
:1003B00051F048F083E0809304010E94620788E0D6
:1003C0000E946207DECF09F467C184E080930401D4
:1003D00083E0F3CF4CE36EE683E090E00E94FA08FE
:1003E00090910D0180910E019E3250F08E3208F0F6
:1003F000A8CF943608F0ABCF8D3259F082E0E6CF2B
:10040000843608F0A4CF9D3221F08D3210F485E0BF
:10041000DDCF83E00E944F0783E00E946807893E9A
:10042000934008F4AECF88E00E9468078438934078
:1004300030F488E00E946807892B09F0A2CF83E09E
:100440000E94620788E00E9462071092040186E021
:1004500042C147E367E385E090E00E94FA0880919B
:100460000B01823558F01092040187E00E94EE07DC
:1004700080910501833008F0D8CE94CF80910D0192
:100480008D3281F078F080910E018D3220F482E07F
:1004900080930401EDCF61F381E080930401259AFC
:1004A0002D9AE6CF29F380910E018E3208F383E076
:1004B000EFCF47E367E386E090E00E94FA0880917F
:1004C0000C01823578F01092040186E00E94EE075C
:1004D00080910501833008F0A8CE28988BB18F72E7
:1004E0008BB960CF80910D018D3240F480910E0167
:1004F0008E3270F383E080930401EACF49F3809158
:100500000E018D3239F030F081E080930401259A9C
:100510002D9ADECFE9F282E0EECF83E00E946807F9
:10052000449738F440E060E084E090E00E94FA08EC
:100530007CCE809103014DE268E7813031F048E7DD
:100540006DE2823011F04CE86CE881E090E00E94AE
:10055000FA0880910201833070F080E00E94680701
:100560008436904040F080E00E94620780E00E9464
:100570004F0788E03DCE80E00E94680784389340B2
:1005800008F453CE40E060E084E090E00E94FA0876
:1005900080E00E9462078AE02BCE46E966E980E0AF
:1005A00090E00E94FA0880910501833048F440E011
:1005B00060E084E090E00E94FA08259A2D98F2CE3F
:1005C00080910D018D3208F030CE80910E018D3278
:1005D00008F02BCE80E00E9468078E35914008F429
:1005E00024CE40E060E084E090E00E94FA08259A82
:1005F0002D981092040180E00E94620786E03CC0C2
:100600004CE86CE881E090E00E94FA0880E00E94EB
:1006100068078436904008F408CE40E060E084E04B
:1006200090E00E94FA0880E00E94620780E00E9449
:100630004F0789E0DDCD8091030147E367E3823016
:10064000F1F485E090E00E94FA0880E00E946807DB
:10065000843B904008F4E9CD40E060E084E090E025
:100660000E94FA0880E00E946207109204018091C3
:100670000301823019F687E00E94EE07D6CD86E0AE
:1006800090E0E1CF40E060E084E090E00E94FA0872
:10069000C1CD943608F05BCE83E00E944F0783E023
:1006A0000E946807893E934008F46BCE88E00E9460
:1006B00068078438934030F488E00E946807892BEB
:1006C00009F05FCE83E00E94620788E00E94620723
:1006D0001092040187E00E94EE0753CEF894E09157
:1006E0000701EA3078F4F0E0E75CF64F0C94260955
:1006F00085E00E94FA07803039F087E08093070197
:10070000109206017894089584E00E94FA078030E0
:1007100039F087E08093070181E080930601F2CFF2
:1007200088E00E94FA07803029F087E08093070173
:1007300082E0F3CF89E00E94FA07803019F387E066
:100740008093070183E0E9CF28988BB1806C8BB947
:1007500010928900109288008AE590E090938B00B7
:1007600080938A0086E00E944F0786E00E94680717
:10077000893C904038F283E08093070186E00E9434
:100780006207C0CF28988BB18F728BB98BB1806C08
:100790008BB98AE590E0909389008093880010924D
:1007A0008B0010928A0086E00E944F0786E00E942C
:1007B0006807823E904008F4A5CF84E0DDCF82E850
:1007C00090E0909389008093880086E490938B005A
:1007D00080938A0086E00E944F0786E00E946807A7
:1007E0008D3B924008F48ECF85E0C6CF86E490E042
:1007F000909389008093880082E890938B00809387
:100800008A0086E00E944F0786E00E9468078D3BC1
:10081000924008F477CF86E080930701B0CF82E85A
:1008200090E0909389008093880010928B00109242
:100830008A0086E00E944F0786E00E94680785369E
:10084000904008F45FCF81E00E94EE0786E00E94AE
:100850006207109207011092000154CF1092890094
:100860001092880082E890E090938B0080938A0039
:10087000E0CF86E00E944F0786E00E946807883834
:10088000934190F086E00E946207259A2D9880910E
:100890000601823019F130F481111EC081E080938D
:1008A000070102C08330E1F086E00E946807803FC4
:1008B0002AE0920739F1C8F4883027E0920711F155
:1008C00088F4803223E09207E9F0883E934009F0F3
:1008D00019CF259A2D9816CF82E0E1CF89E0DFCF9E
:1008E00088E0DDCF803D9740F2CF803A2FE092073D
:1008F00081F358F4883B2BE0920759F3883D9E40E2
:1009000009F000CF259A2D9AFDCE803C9241F8CF78
:1009100028988BB1806C8BB98EEB90E09093890016
:100920008093880088EC90938B0080938A0086E007
:100930000E944F0786E00E946807893C904080F142
:1009400090910E0180910D019E3268F08D3228F455
:1009500086E00E94620782E017C071F086E00E9484
:10096000620781E011C08E3238F09D3229F086E0B6
:100970000E94620783E008C080910C01873338F041
:1009800086E00E94620786E00E94EE0762CF8091B7
:100990000B01873328F086E00E94620787E0F4CFDE
:1009A00086E00E9468078D32914008F4ABCEE8CF14
:1009B00028988BB1806C8BB988E290E09093890085
:1009C0008093880082E390938B0080938A0086E076
:1009D0000E944F0786E00E9468078B3F904098F086
:1009E00090910E0180910D019E3298F08D3208F4A5
:1009F000AFCF09F0B3CF80910C01873308F6809117
:100A00000B01873340F686E00E946807813B9440E3
:100A1000CCCF8E3280F39D3271F3A9CFF894E09160
:100A20000901E73088F4F0E0ED5BF64F0C942609FD
:100A300086E00E94FA07803049F081E08093090146
:100A400080930801259A2D987894089587E00E9454
:100A5000FA078030C9F382E08093090181E0F0CF8A
:100A600087E00E944F0780910801813009F06AC039
:100A700028988BB18F728BB983E00E944F0783E077
:100A80000E946807459788F0289A5E9A87E390E06D
:100A9000909389008093880090938B0080938A00C4
:100AA00083E00E9462071092080180910C01823558
:100AB00008F455C088E00E944F0788E00E9468074C
:100AC0008935924080F083E00E94620787E00E94AF
:100AD000620788E00E94620728988BB18F728BB9F9
:100AE00083E080930901809105018330A0F440E008
:100AF00060E084E090E00E94FA0883E00E946207D0
:100B000087E00E94620788E00E9462071092090154
:100B100080E00E94EE0787E00E946807893E9340CC
:100B200008F492CF87E00E94620788E00E94620783
:100B300083E00E94620782E08093090181E0809354
:100B4000080182CF289A5E9A87E390E0909389000B
:100B50008093880090938B0080938A00A6CF809129
:100B60000E018E3278F083E00E94620788E00E94D6
:100B7000620787E00E9462071092090182E00E94EA
:100B8000EE07B1CF80910D018E3208F4ACCF83E037
:100B90000E94620787E00E94620788E00E94620765
:100BA0001092090183E0EBCF87E00E944F0780910C
:100BB00008012898813009F067C08BB18F728BB91A
:100BC00083E00E944F0783E00E946807459790F0FA
:100BD0008BB180698BB987E390E090938900809313
:100BE000880090938B0080938A0083E00E946207C4
:100BF0001092080180910B01823508F453C088E0FF
:100C00000E944F0788E00E9468078935924080F073
:100C100083E00E94620787E00E94620788E00E94EA
:100C2000620728988BB18F728BB984E08093090199
:100C3000809105018330A0F440E060E084E090E022
:100C40000E94FA0883E00E94620787E00E94620720
:100C500088E00E9462071092090180E00E94EE077E
:100C600087E00E946807893E934008F4EDCE87E054
:100C70000E94620788E00E94620783E00E94620788
:100C800081E0809309015BCF8BB180698BB987E3E9
:100C900090E0909389008093880090938B008093DC
:100CA0008A00A8CF80910D018E3278F083E00E94F7
:100CB000620788E00E94620787E00E946207109244
:100CC000090183E00E94EE07B3CF80910E018E32BE
:100CD00008F4AECF83E00E94620787E00E946207BB
:100CE00088E00E9462071092090182E0EBCF289A07
:100CF0005C9A8CE890E090938900809388009093B0
:100D00008B0080938A0083E00E944F0783E00E945B
:100D100068078739904008F497CE85E080930901F1
:100D200083E00E94620790CE289A5C9A8CE890E05B
:100D3000909389008093880090938B0080938A0021
:100D400083E00E944F0783E00E9468078739904044
:100D500008F47ACE86E0E2CF80E590E090938900B7
:100D60008093880082E890938B0080938A0083E0D0
:100D70000E944F0783E00E9468078F35914008F476
:100D800063CE81E08093090183E00E946207289886
:100D90008BB18F728BB958CE82E890E09093890026
:100DA0008093880080E590938B0080938A0083E095
:100DB0000E944F0783E00E9468078F35914008F436
:100DC00043CE82E0DFCF10920D0110920E011092FF
:100DD0000B0110920C010895F89481E00E944F07D6
:100DE00081E00E9468070297F0F08091790090916D
:100DF0000A01923041F1A8F4911117C080930E01BD
:100E000081E080930A0180917C00807180937C0056
:100E100080917C00846680937C0081E00E94620760
:100E200002C09330F1F07894089580930D0182E030
:100E300080930A0180917C00807180937C00809176
:100E40007C008266E8CF80930B0183E080930A01E7
:100E500080917C00807180937C0080917C0083660F
:100E6000DACF80930C0110920A0180917C0080718E
:100E700080937C0080917C008566CDCF8091B1000D
:100E800085608093B10080917000816080937000D4
:100E9000EFE0F1E08AE011928A95E9F70895F8947D
:100EA00090E0DC01A15FBE4F2C91211107C0880F9B
:100EB000991FFC01E75EFE4F1082118281E08C9346
:100EC00078940895E82FF0E0E15FFE4F10820895D6
:100ED000E82FF0E0EE0FFF1FE75EFE4F808191816B
:100EE00008958F938FB78F939F93AF93BF93EF9393
:100EF000FF9382E88093B200AFE0B1E0E9E1F1E076
:100F00008D91813029F48081918101968083918334
:100F1000329681E0A931B80799F7FF91EF91BF911F
:100F2000AF919F918F918FBF8F91189587E6809396
:100F3000C4001092C5008091C20086608093C200F8
:100F40008091C10088698093C100259A2D9A0895E7
:100F50008F938091C60080932D018F911895F894FE
:100F600089E00E944F0789E00E9468078B3F90400C
:100F700060F089E00E94620780912D01833301F1C6
:100F800030F4813369F08233A1F07894089584338A
:100F9000E1F78091C00085FFF8CF80910C0106C079
:100FA0008091C00085FFF1CF80910B018093C60036
:100FB000ECCF8091C00085FFE8CF80910D01F6CF86
:100FC0008091C00085FFE1CF80910E01EFCFEEE26E
:100FD000F1E08CE011928A95E9F70895F894E82FF2
:100FE000F0E0E25DFE4F8081811102C081E08083EC
:100FF00078940895F894E82FF0E0E25DFE4F808148
:10100000823021F41082789481E00895789480E011
:101010000895F894EEE2F1E092E08191823041F49B
:10102000DF011E9281E0EA33F807B9F7789408955A
:101030008130C1F7DF019E93F5CF109241011092EC
:10104000400181E080933F0192E090933E019093B4
:101050003A0180933C010895CF93DF93EC0168300F
:1010600011F0643079F48881813078F488E00E944E
:10107000EE07109201011092410182E080933E013F
:1010800081E08883DF91CF91089511F489E0EFCF5B
:10109000823079F785E0683051F384E0E8CFF89446
:1010A00084E00E944F0784E00E946807079738F0A9
:1010B00089B18C7080933D0184E00E946207809129
:1010C0004101813009F441C0823009F445C08111E9
:1010D00019C080913C01259A8130B1F42D9A85E0A8
:1010E0000E944F0785E00E9468078536904050F0C7
:1010F00085E00E94620710923C0180913B018F5F66
:1011000080933B01789408952D9885E00E944F07C5
:1011100085E00E946807813A9040A0F385E00E9434
:10112000620781E080933C0190913B0180913A01FC
:101130009813E8CF10923B0180913E01813011F06D
:10114000823001F780934101DDCF60913D018FE353
:1011500091E00E942C08D6CF90913D01983019F56E
:101160001092410180933E0190914001913071F0C5
:10117000923089F0911107C081E080933A01809309
:101180003F018093400110923D01BCCF80933A0112
:1011900010923F01F6CF83E080933A0190933F0194
:1011A00010924001F0CF943009F0ACCF1092410181
:1011B00091E090933E0180933A01E5CF80918100C8
:1011C000826080938100219A809180008168809361
:1011D000800080918100886080938100229A8091B4
:1011E000800081628093800080918100886080937C
:1011F00081000895F89450E050938900409388004E
:1012000070E070938B0060938A008730910570F4D2
:10121000865B964FFC010C942609289A5F985C9A8D
:101220005E9804C028985F9A5C985E9A78940895B6
:101230002898F4CF289A5F985C98F2CF28985F9A04
:10124000EECF289A5F98F0CF2898F5CFEE0FFF1FCA
:101250000590F491E02D0994F894FFCFF200170166
:101260009201EA01290259028D02CD0200031B03FB
:1012700042037803A403C203DF03F6030F042E0422
:1012800039048804D80418053005D4057706940677
:10129000AC06CC060D09120918091A0924091E0901
:0212A000210922
:0212A200010148
:00000001FF
