:100000000C9434000C9451000C9451000C94510049
:100010000C9451000C9451000C9451000C9451001C
:100020000C9451000C9479070C9451000C945100DD
:100030000C9451000C9451000C9451000C945100FC
:100040000C9451000C9451000C94B0070C94510086
:100050000C9451000C9451000C9451000C945100DC
:100060000C9451000C94510011241FBECFEFD4E02A
:10007000DEBFCDBF11E0A0E0B1E0E2EBF2E102C0F3
:1000800005900D92A230B107D9F721E0A2E0B1E0CE
:1000900001C01D92A234B207E1F70E9469000C94DE
:1000A00034090C94000084B1876084B98AB1806DF2
:1000B0008AB98BB18C608BB987B187B980917C008C
:1000C000856680937C0080917A00876E80937A00A9
:1000D0000895F8940E94EF070E9446070E94E608E0
:1000E0000E9453000E949E0778940E9425080E9457
:1000F000B1000E94EB0680910001813011F40E9452
:1001000076030E9416050E94F4060E94BB000E941E
:1001100011080E94B70780910101813061F70E94A8
:100120005708E9CF833008F080E0809303011092F4
:10013000020140E060E084E090E00E940209259A1C
:100140002D9883E00E946A0788E00E946A0780E099
:100150000E946A0780E00E94570786E080930401AE
:10016000089510920301109202011092040183E09D
:10017000809305010895F89482E00E94570782E079
:100180000E9470070797B8F08091050183708093F3
:10019000050182E00E946A0780910401863059F4CB
:1001A00080910501833000F180910201833018F4C1
:1001B0008F5F8093020180910501833060F49091FC
:1001C00004019030A1F0963009F4AFC19A3009F4DF
:1001D00061C20E949200E0910401EB3058F5F0E01A
:1001E000EA5CF64F0C942E0910920201E4CF82E0F3
:1001F0000E940208803021F083E0809304011AC03D
:1002000083E00E940208803011F082E0F6CF81E0A6
:100210000E940208803031F081E080930401259A29
:100220002D9A08C00E940208803021F080910501BB
:100230000E9492007894089580910D0190910E0192
:10024000891B990B9C012C5F3F4F2930304008F4EB
:1002500045C0883491050CF045C0893B2FEF9207CB
:100260000CF444C097FD019695958795AC014259D1
:100270006EE670E0681B80E090E00E9402099091B9
:100280000D01943620F480910E01843698F188E0B7
:100290000E94570788E00E9470078538934060F0FD
:1002A00087E08093040180E00E946A0780E00E945A
:1002B000570788E00E946A0780910501833008F0A3
:1002C000B9CF28988BB18F728BB9259A2D9886E07B
:1002D0008093040188E00E946A07ACCF4EE680E07C
:1002E00090E0C6CF41E983E290E0C2CF4BE48DEDD0
:1002F0009FEFBECF9E3240F08E3260F4259A2D984B
:1003000082E080930401D5CF8E3220F0259A2D987B
:1003100083E0F7CF80910B018E3220F0259A2D9843
:1003200084E0EFCF80910C018E3230F2259A2D9827
:1003300085E0E7CF4EE66CE382E090E00E940209A0
:1003400090910D0180910E019E3238F08E3208F4AA
:10035000A8C181E08093040114C0843668F188E06C
:100360000E94570788E00E9470078538934088F004
:1003700087E08093040180E00E946A0780E00E9489
:10038000570783E00E946A0788E00E946A07259A5F
:100390002D9A80910501833008F04CCF40E060E059
:1003A00084E090E00E94020983E00E946A0788E0EE
:1003B0000E946A0786E021CF9D3209F475C18D3213
:1003C00051F048F083E0809304010E946A0788E0BE
:1003D0000E946A07DECF09F467C184E080930401BC
:1003E00083E0F3CF4CE36EE683E090E00E940209E5
:1003F00090910D0180910E019E3250F08E3208F0E6
:10040000A8CF943608F0ABCF8D3259F082E0E6CF1A
:10041000843608F0A4CF9D3221F08D3210F485E0AF
:10042000DDCF83E00E94570783E00E947007893E7A
:10043000934008F4AECF88E00E9470078438934060
:1004400030F488E00E947007892B09F0A2CF83E086
:100450000E946A0788E00E946A071092040186E001
:1004600042C147E367E385E090E00E940209809182
:100470000B01823558F01092040187E00E94F607C4
:1004800080910501833008F0D5CE94CF80910D0185
:100490008D3281F078F080910E018D3220F482E06F
:1004A00080930401EDCF61F381E080930401259AEC
:1004B0002D9AE6CF29F380910E018E3208F383E066
:1004C000EFCF47E367E386E090E00E940209809166
:1004D0000C01823578F01092040186E00E94F60744
:1004E00080910501833008F0A5CE28988BB18F72DA
:1004F0008BB960CF80910D018D3240F480910E0157
:100500008E3270F383E080930401EACF49F3809147
:100510000E018D3239F030F081E080930401259A8C
:100520002D9ADECFE9F282E0EECF80E00E947007E4
:10053000449738F440E060E084E090E00E940209D3
:1005400079CE809103014DE268E7813031F048E7D0
:100550006DE2823011F04CE86CE881E090E00E949E
:10056000020980910201833070F080E00E947007E0
:100570008436904040F080E00E946A0780E00E944C
:10058000570788E03ACE80E00E9470078438934095
:1005900008F450CE40E060E084E090E00E94020960
:1005A00080E00E946A078AE028CE46E966E980E09A
:1005B00090E00E94020980910501833048F440E0F8
:1005C00060E084E090E00E940209259A2D98F2CE26
:1005D00080910D018D3208F02DCE80910E018D326B
:1005E00008F028CE80E00E9470078E35914008F414
:1005F00021CE40E060E084E090E00E940209259A6C
:100600002D981092040180E00E946A0786E03CC0A9
:100610004CE86CE881E090E00E94020980E00E94D2
:1006200070078436904008F405CE40E060E084E036
:1006300090E00E94020980E00E946A0780E00E9428
:10064000570789E0DACD8091030147E367E3823001
:10065000F1F485E090E00E94020980E00E947007BA
:10066000843B904008F4E6CD40E060E084E090E018
:100670000E94020980E00E946A07109204018091A2
:100680000301823019F687E00E94F607D3CD86E099
:1006900090E0E1CF40E060E084E090E00E94020959
:1006A000BECD943608F05BCE83E00E94570783E00E
:1006B0000E947007893E934008F46BCE88E00E9448
:1006C00070078438934030F488E00E947007892BCB
:1006D00009F05FCE83E00E946A0788E00E946A0703
:1006E0001092040187E00E94F60753CEF894E0913F
:1006F0000701EA3078F4F0E0EF5BF64F0C942E0936
:1007000085E00E940208803039F087E0809307017D
:10071000109206017894089584E00E9402088030C7
:1007200039F087E08093070181E080930601F2CFE2
:1007300088E00E940208803029F087E0809307015A
:1007400082E0F3CF89E00E940208803019F387E04D
:100750008093070183E0E9CF28988BB1806C8BB937
:1007600010928900109288008AE590E090938B00A7
:1007700080938A0086E00E94570786E00E947007F7
:10078000893C904038F283E08093070186E00E9424
:100790006A07C0CF28988BB18F728BB98BB1806CF0
:1007A0008BB98AE590E0909389008093880010923D
:1007B0008B0010928A0086E00E94570786E00E9414
:1007C0007007823E904008F4A5CF84E0DDCF82E838
:1007D00090E0909389008093880086E490938B004A
:1007E00080938A0086E00E94570786E00E94700787
:1007F0008D3B924008F48ECF85E0C6CF86E490E032
:10080000909389008093880082E890938B00809376
:100810008A0086E00E94570786E00E9470078D3BA1
:10082000924008F477CF86E080930701B0CF82E84A
:1008300090E0909389008093880010928B00109232
:100840008A0086E00E94570786E00E94700785367E
:10085000904008F45FCF81E00E94F60786E00E9496
:100860006A07109207011092000154CF109289007C
:100870001092880082E890E090938B0080938A0029
:10088000E0CF86E00E94570786E00E947007883814
:10089000934190F086E00E946A07259A2D988091F6
:1008A0000601823019F130F481111EC081E080937D
:1008B000070102C08330E1F086E00E947007803FAC
:1008C0002AE0920739F1C8F4883027E0920711F145
:1008D00088F4803223E09207E9F0883E934009F0E3
:1008E00019CF259A2D9816CF82E0E1CF89E0DFCF8E
:1008F00088E0DDCF803D9740F2CF803A2FE092072D
:1009000081F358F4883B2BE0920759F3883D9E40D1
:1009100009F000CF259A2D9AFDCE803C9241F8CF68
:1009200028988BB1806C8BB98EEB90E09093890006
:100930008093880088EC90938B0080938A0086E0F7
:100940000E94570786E00E947007893C904080F122
:1009500090910E0180910D019E3268F08D3228F445
:1009600086E00E946A0782E017C071F086E00E946C
:100970006A0781E011C08E3238F09D3229F086E09E
:100980000E946A0783E008C080910C01873338F029
:1009900086E00E946A0786E00E94F60762CF809197
:1009A0000B01873328F086E00E946A0787E0F4CFC6
:1009B00086E00E9470078D32914008F4ABCEE8CFFC
:1009C00028988BB1806C8BB988E290E09093890075
:1009D0008093880082E390938B0080938A0086E066
:1009E0000E94570786E00E9470078B3F904098F066
:1009F00090910E0180910D019E3298F08D3208F495
:100A0000AFCF09F0B3CF80910C01873308F6809106
:100A10000B01873340F686E00E947007813B9440CB
:100A2000CCCF8E3280F39D3271F3A9CFF894E09150
:100A30000901E73088F4F0E0E55BF64F0C942E09ED
:100A400086E00E940208803049F081E0809309012D
:100A500080930801259A2D987894089587E00E9444
:100A600002088030C9F382E08093090181E0F0CF71
:100A700087E00E94570780910801813009F06AC021
:100A800028988BB18F728BB983E00E94570783E05F
:100A90000E947007459788F0289A5E9A87E390E055
:100AA000909389008093880090938B0080938A00B4
:100AB00083E00E946A071092080180910C01823540
:100AC00008F455C088E00E94570788E00E9470072C
:100AD0008935924080F083E00E946A0787E00E9497
:100AE0006A0788E00E946A0728988BB18F728BB9D9
:100AF00083E080930901809105018330A0F440E0F8
:100B000060E084E090E00E94020983E00E946A07AE
:100B100087E00E946A0788E00E946A071092090134
:100B200080E00E94F60787E00E947007893E9340AC
:100B300008F492CF87E00E946A0788E00E946A0763
:100B400083E00E946A0782E08093090181E080933C
:100B5000080182CF289A5E9A87E390E090938900FB
:100B60008093880090938B0080938A00A6CF809119
:100B70000E018E3278F083E00E946A0788E00E94BE
:100B80006A0787E00E946A071092090182E00E94CA
:100B9000F607B1CF80910D018E3208F4ACCF83E01F
:100BA0000E946A0787E00E946A0788E00E946A073D
:100BB0001092090183E0EBCF87E00E9457078091F4
:100BC00008012898813009F067C08BB18F728BB90A
:100BD00083E00E94570783E00E947007459790F0DA
:100BE0008BB180698BB987E390E090938900809303
:100BF000880090938B0080938A0083E00E946A07AC
:100C00001092080180910B01823508F453C088E0EE
:100C10000E94570788E00E9470078935924080F053
:100C200083E00E946A0787E00E946A0788E00E94CA
:100C30006A0728988BB18F728BB984E08093090181
:100C4000809105018330A0F440E060E084E090E012
:100C50000E94020983E00E946A0787E00E946A07F7
:100C600088E00E946A071092090180E00E94F6075E
:100C700087E00E947007893E934008F4EDCE87E03C
:100C80000E946A0788E00E946A0783E00E946A0760
:100C900081E0809309015BCF8BB180698BB987E3D9
:100CA00090E0909389008093880090938B008093CC
:100CB0008A00A8CF80910D018E3278F083E00E94E7
:100CC0006A0788E00E946A0787E00E946A0710921C
:100CD000090183E00E94F607B3CF80910E018E32A6
:100CE00008F4AECF83E00E946A0787E00E946A079B
:100CF00088E00E946A071092090182E0EBCF289AEF
:100D00005C9A8CE890E0909389008093880090939F
:100D10008B0080938A0083E00E94570783E00E9443
:100D200070078739904008F497CE85E080930901D9
:100D300083E00E946A0790CE289A5C9A8CE890E043
:100D4000909389008093880090938B0080938A0011
:100D500083E00E94570783E00E9470078739904024
:100D600008F47ACE86E0E2CF80E590E090938900A7
:100D70008093880082E890938B0080938A0083E0C0
:100D80000E94570783E00E9470078F35914008F456
:100D900063CE81E08093090183E00E946A0728986E
:100DA0008BB18F728BB958CE82E890E09093890016
:100DB0008093880080E590938B0080938A0083E085
:100DC0000E94570783E00E9470078F35914008F416
:100DD00043CE82E0DFCF10920D0110920E011092EF
:100DE0000B0110920C010895F89481E00E945707BE
:100DF00081E00E9470070297F0F080917900909155
:100E00000A01923041F1A8F4911117C080930E01AC
:100E100081E080930A0180917C00807180937C0046
:100E200080917C00846680937C0081E00E946A0748
:100E300002C09330F1F07894089580930D0182E020
:100E400080930A0180917C00807180937C00809166
:100E50007C008266E8CF80930B0183E080930A01D7
:100E600080917C00807180937C0080917C008366FF
:100E7000DACF80930C0110920A0180917C0080717E
:100E800080937C0080917C008566CDCF8091B100FD
:100E900085608093B10080917000816080937000C4
:100EA000EFE0F1E08AE011928A95E9F70895F8946D
:100EB00090E0DC01A15FBE4F2C91211107C0880F8B
:100EC000991FFC01E75EFE4F1082118281E08C9336
:100ED00078940895E82FF0E0E15FFE4F10820895C6
:100EE000E82FF0E0EE0FFF1FE75EFE4F808191815B
:100EF00008958F938FB78F939F93AF93BF93EF9383
:100F0000FF9382E88093B200AFE0B1E0E9E1F1E065
:100F10008D91813029F48081918101968083918324
:100F2000329681E0A931B80799F7FF91EF91BF910F
:100F3000AF919F918F918FBF8F91189587E6809386
:100F4000C4001092C5008091C20086608093C200E8
:100F50008091C10088698093C100259A2D9A0895D7
:100F60008F938091C60080932D018F911895F894EE
:100F700089E00E94570789E00E9470078B3F9040EC
:100F800060F089E00E946A0780912D01833301F1AE
:100F900030F4813369F08233A1F07894089584337A
:100FA000E1F78091C00085FFF8CF80910C0106C069
:100FB0008091C00085FFF1CF80910B018093C60026
:100FC000ECCF8091C00085FFE8CF80910D01F6CF76
:100FD0008091C00085FFE1CF80910E01EFCFEEE25E
:100FE000F1E08CE011928A95E9F70895F894E82FE2
:100FF000F0E0E25DFE4F8081811102C081E08083DC
:1010000078940895F894E82FF0E0E25DFE4F808137
:10101000823021F41082789481E00895789480E001
:101020000895F894EEE2F1E092E08191823041F48B
:10103000DF011E9281E0EA33F807B9F7789408954A
:101040008130C1F7DF019E93F5CF109241011092DC
:10105000400181E080933F0192E090933E019093A4
:101060003A0180933C010895CF93DF93EC016830FF
:1010700011F0643079F48881813078F488E00E943E
:10108000F607109201011092410182E080933E0127
:1010900081E08883DF91CF91089511F489E0EFCF4B
:1010A000823079F785E0683051F384E0E8CFF89436
:1010B00084E00E94570784E00E947007079738F089
:1010C00089B18C7080933D0184E00E946A07809111
:1010D0004101813009F441C0823009F445C08111D9
:1010E00019C080913C01259A8130B1F42D9A85E098
:1010F0000E94570785E00E9470078536904050F0A7
:1011000085E00E946A0710923C0180913B018F5F4D
:1011100080933B01789408952D9885E00E945707AD
:1011200085E00E947007813A9040A0F385E00E941C
:101130006A0781E080933C0190913B0180913A01E4
:101140009813E8CF10923B0180913E01813011F05D
:10115000823001F780934101DDCF60913D018FE343
:1011600091E00E943408D6CF90913D01983019F556
:101170001092410180933E0190914001913071F0B5
:10118000923089F0911107C081E080933A018093F9
:101190003F018093400110923D01BCCF80933A0102
:1011A00010923F01F6CF83E080933A0190933F0184
:1011B00010924001F0CF943009F0ACCF1092410171
:1011C00091E090933E0180933A01E5CF80918100B8
:1011D000826080938100219A809180008168809351
:1011E000800080918100886080938100229A8091A4
:1011F000800081628093800080918100886080936C
:1012000081000895F89450E050938900409388003D
:1012100070E070938B0060938A008730910570F4C2
:101220008E5A964FFC010C942E09289A5F985C9A6E
:101230005E9804C028985F9A5C985E9A78940895A6
:101240002898F4CF289A5F985C98F2CF28985F9AF4
:10125000EECF289A5F98F0CF2898F5CFEE0FFF1FBA
:101260000590F491E02D0994F894FFCFF7001C014C
:101270009A01F201310261029502D50208032303AB
:101280004A038003AC03CA03E703FE0317043604D2
:1012900041049004E00420053805DC057F069C0627
:1012A000B406D40615091A09200922092C092609B1
:0212B00029090A
:0212B200010138
:00000001FF
