:100000000C9434000C9451000C9451000C94510049
:100010000C9451000C9451000C9451000C9451001C
:100020000C9451000C94E7060C9451000C94510070
:100030000C9451000C9451000C9451000C945100FC
:100040000C9451000C9451000C941E070C94510018
:100050000C9451000C9451000C9451000C945100DC
:100060000C9451000C94510011241FBECFEFD4E02A
:10007000DEBFCDBF11E0A0E0B1E0E8E8F1E102C0F1
:1000800005900D92A230B107D9F721E0A2E0B1E0CE
:1000900001C01D92A034B207E1F70E9469000C94E0
:1000A000A2080C94000084B1876084B98AB1806D85
:1000B0008AB98BB18C608BB987B187B980917C008C
:1000C000856680937C0080917A00876E80937A00A9
:1000D0000895F8940E945D070E94B4060E94540897
:1000E0000E9453000E940C0778940E9493070E947C
:1000F00092000E94590680910001813011F40E9403
:10010000E0020E9480040E9462060E9498000E9401
:100110007F070E94250780910101813061F70E94CD
:10012000C507E9CF1092020183E08093030108958F
:10013000F89482E00E94C50682E00E94DE060797DE
:1001400038F086B183708093030182E00E94D80664
:10015000E0910201E830F8F4F0E0EC55F74F0C9430
:100160009C0882E00E947007803021F083E0809339
:10017000020111C083E00E947007803011F082E01C
:10018000F6CF81E00E947007803039F081E08093E3
:100190000201259A2D9A789408950E947007803064
:1001A000D1F386E0E4CF4EE66EE680E090E00E9478
:1001B000700890910B01943620F480910C018436E4
:1001C00000F188E00E94C50688E00E94DE068538BE
:1001D000934030F087E08093020188E00E94D806C7
:1001E000809103018330B8F628988BB18F728BB958
:1001F000259A2D9886E08093020188E00E94D80617
:10020000CACF9E3230F08E3250F4259A2D9882E07B
:10021000E2CF8E3220F0259A2D9883E0DCCF8091BA
:1002200009018E3220F0259A2D9884E0D4CF809158
:100230000A018E32A8F2259A2D9885E0CCCF4EE6A1
:100240006CE382E090E00E94700890910B01809135
:100250000C019E3228F08E3208F48DC181E00CC072
:10026000843630F188E00E94C50688E00E94DE06F0
:100270008538934058F087E08093020183E00E9424
:10028000D80688E00E94D806259A2D9A809103010D
:10029000833008F080CF40E060E084E090E00E948E
:1002A000700883E00E94D80688E00E94D80679CFC3
:1002B0009D3209F463C18D3251F048F083E08093A0
:1002C00002010E94D80688E00E94D806DFCF09F418
:1002D00055C184E08093020183E0F3CF4CE36EE6E6
:1002E00083E090E00E94700890910B0180910C01D6
:1002F0009E3250F08E3208F0B1CF943608F0B2CF73
:100300008D3259F082E0E6CF843608F0ABCF9D32D3
:1003100021F08D3210F485E0DDCF83E00E94C50628
:1003200083E00E94DE06893E934008F4AFCF88E068
:100330000E94DE068438934030F488E00E94DE0696
:10034000892B09F0A3CF83E00E94D80688E00E94A1
:10035000D8061092020186E030C147E367E385E0EA
:1003600090E00E94700880910901823558F0109247
:10037000020187E00E94640780910301833008F442
:1003800010CF09CF80910B018D3281F078F08091F0
:100390000C018D3220F482E080930201EDCF61F3F5
:1003A00081E080930201259A2D9AE6CF29F380916E
:1003B0000C018E3208F383E0EFCF47E367E386E07A
:1003C00090E00E94700880910A01823578F01092C6
:1003D000020186E00E94640780910301833008F0E7
:1003E000DACE28988BB18F728BB9DBCE80910B015E
:1003F0008D3240F480910C018E3270F383E0809353
:100400000201EACF49F380910C018D3239F030F0CE
:1004100081E080930201259A2D9ADECFE9F282E0F5
:10042000EECF80910301813079F583E00E94C5060B
:1004300083E00E94DE06459780F0289A5C9A8DE260
:1004400090E0909389008093880088E790938B00D8
:1004500080938A0083E00E94D80680E00E94C5064F
:1004600080E00E94DE068F35914098F18091030173
:10047000833078F11092020186E00E94640780E0E8
:100480000E94D80683E0BACE823091F483E00E94C5
:10049000C50683E00E94DE064597F8F2289A5C9A2A
:1004A00088E790E090938900809388008DE2CECF1A
:1004B0008111D3CF83E00E94C50683E00E94DE064F
:1004C000459758F24CE86CE881E090E00E94700893
:1004D000C1CF80E00E94DE068F35914008F45BCEEC
:1004E00080910301833008F056CE40E060E084E064
:1004F00090E00E9470081092020180E00E94D806ED
:1005000083E00E94D80681E080930101809300017E
:1005100042CE46E966E980E090E00E947008809152
:100520000B018D3290F490910C019D3270F440E0FB
:1005300060E084E090E00E947008259A2D98109267
:10054000020186E00E94640726CE90910301933059
:1005500008F021CE843608F01ECE80910C0184363E
:1005600008F019CE40E060E084E090E00E9470085E
:10057000259A2D9816CE943608F074CE83E00E940A
:10058000C50683E00E94DE06893E934008F47ECED5
:1005900088E00E94DE068438934030F488E00E94B0
:1005A000DE06892B09F072CE83E00E94D80688E02F
:1005B0000E94D8061092020187E00E94640766CE6E
:1005C000F894E0910501EA3078F4F0E0E455F74F53
:1005D0000C949C0885E00E947007803039F087E019
:1005E00080930501109204017894089584E00E949C
:1005F0007007803039F087E08093050181E08093B7
:100600000401F2CF88E00E947007803029F087E073
:100610008093050182E0F3CF89E00E94700780306B
:1006200019F387E08093050183E0E9CF28988BB127
:10063000806C8BB910928900109288008AE590E056
:1006400090938B0080938A0086E00E94C50686E026
:100650000E94DE06893C904038F283E080930501D9
:1006600086E00E94D806C0CF28988BB18F728BB9D4
:100670008BB1806C8BB98AE590E090938900809370
:10068000880010928B0010928A0086E00E94C506B6
:1006900086E00E94DE06823E904008F4A5CF84E00A
:1006A000DDCF82E890E0909389008093880086E413
:1006B00090938B0080938A0086E00E94C50686E0B6
:1006C0000E94DE068D3B924008F48ECF85E0C6CFB7
:1006D00086E490E0909389008093880082E890936C
:1006E0008B0080938A0086E00E94C50686E00E9407
:1006F000DE068D3B924008F477CF86E080930501BB
:10070000B0CF82E890E090938900809388001092A7
:100710008B0010928A0086E00E94C50686E00E9447
:10072000DE068536904008F45FCF81E00E946407C2
:1007300086E00E94D806109205011092000154CF65
:10074000109289001092880082E890E090938B00CC
:1007500080938A00E0CF86E00E94C50686E00E9472
:10076000DE068838934190F086E00E94D806259AEC
:100770002D9880910401823019F130F481111EC04E
:1007800081E08093050102C08330E1F086E00E94A1
:10079000DE06803F2AE0920739F1C8F4883027E06E
:1007A000920711F188F4803223E09207E9F0883E45
:1007B000934009F019CF259A2D9816CF82E0E1CF0A
:1007C00089E0DFCF88E0DDCF803D9740F2CF803AEF
:1007D0002FE0920781F358F4883B2BE0920759F3FE
:1007E000883D9E4009F000CF259A2D9AFDCE803C91
:1007F0009241F8CF28988BB1806C8BB98EEB90E04A
:10080000909389008093880088EC90938B0080936C
:100810008A0086E00E94C50686E00E94DE06893CCA
:10082000904080F190910C0180910B019E3268F014
:100830008D3228F486E00E94D80682E017C071F05D
:1008400086E00E94D80681E011C08E3238F09D32D9
:1008500029F086E00E94D80683E008C080910A0152
:10086000873338F086E00E94D80686E00E9464074D
:1008700062CF80910901873328F086E00E94D80674
:1008800087E0F4CF86E00E94DE068D32914008F4C6
:10089000ABCEE8CF28988BB1806C8BB988E290E022
:1008A000909389008093880082E390938B008093DB
:1008B0008A0086E00E94C50686E00E94DE068B3F25
:1008C000904098F090910C0180910B019E3298F02D
:1008D0008D3208F4AFCF09F0B3CF80910A0187338E
:1008E00008F680910901873340F686E00E94DE0613
:1008F000813B9440CCCF8E3280F39D3271F3A9CFEF
:10090000F894E0910701E73088F4F0E0EA54F74FFB
:100910000C949C0886E00E947007803049F081E0CA
:100920008093070180930601259A2D987894089565
:1009300087E00E9470078030C9F382E0809307014E
:1009400081E0F0CF87E00E94C506809106018130EA
:1009500009F06CC028988BB18F728BB983E00E942C
:10096000C50683E00E94DE06459788F0289A5E9AC5
:1009700087E390E0909389008093880090938B00A8
:1009800080938A0083E00E94D8061092060180912D
:100990000A01823508F457C088E00E94C50688E045
:1009A0000E94DE068935924080F083E00E94D806DE
:1009B00087E00E94D80688E00E94D80628988BB16C
:1009C0008F728BB983E0809307018091030183309C
:1009D000B0F480910701803091F028988BB18F722C
:1009E0008BB983E00E94D80687E00E94D80688E091
:1009F0000E94D8061092070180E00E94640787E0F9
:100A00000E94DE06893E934008F490CF87E00E9462
:100A1000D80688E00E94D80683E00E94D80682E0CB
:100A20008093070181E08093060180CF289A5E9A27
:100A300087E390E0909389008093880090938B00E7
:100A400080938A00A4CF80910C018E3278F083E0ED
:100A50000E94D80688E00E94D80687E00E94D80647
:100A60001092070182E00E946407AFCF80910B01D2
:100A70008E3208F4AACF83E00E94D80687E00E9455
:100A8000D80688E00E94D8061092070183E0EBCFD9
:100A900087E00E94C506809106012898813009F000
:100AA00069C08BB18F728BB983E00E94C50683E069
:100AB0000E94DE06459790F08BB180698BB987E381
:100AC00090E0909389008093880090938B008093AE
:100AD0008A0083E00E94D8061092060180910901E5
:100AE000823508F455C088E00E94C50688E00E945F
:100AF000DE068935924080F083E00E94D80687E0C8
:100B00000E94D80688E00E94D80628988BB18F7280
:100B10008BB984E080930701809103018330B0F4A6
:100B200080910701803091F028988BB18F728BB93A
:100B300083E00E94D80687E00E94D80688E00E94E1
:100B4000D8061092070180E00E94640787E00E94A7
:100B5000DE06893E934008F4E9CE87E00E94D8067D
:100B600088E00E94D80683E00E94D80681E0809346
:100B7000070159CF8BB180698BB987E390E09093DF
:100B800089008093880090938B0080938A00A6CF81
:100B900080910B018E3278F083E00E94D80688E0C5
:100BA0000E94D80687E00E94D8061092070183E0D1
:100BB0000E946407B1CF80910C018E3208F4ACCF53
:100BC00083E00E94D80687E00E94D80688E00E9451
:100BD000D8061092070182E0EBCF289A5C9A8CE845
:100BE00090E0909389008093880090938B0080938D
:100BF0008A0083E00E94C50683E00E94DE068739F2
:100C0000904008F493CE85E08093070183E00E9432
:100C1000D8068CCE289A5C9A8CE890E09093890054
:100C20008093880090938B0080938A0083E00E94D9
:100C3000C50683E00E94DE068739904008F476CE30
:100C400086E0E2CF80E590E0909389008093880071
:100C500082E890938B0080938A0083E00E94C5060F
:100C600083E00E94DE068F35914008F45FCE81E07C
:100C70008093070183E00E94D80628988BB18F7279
:100C80008BB954CE82E890E09093890080938800DD
:100C900080E590938B0080938A0083E00E94C506D4
:100CA00083E00E94DE068F35914008F43FCE82E05B
:100CB000DFCF10920B0110920C01109209011092DB
:100CC0000A010895F89481E00E94C50681E00E941F
:100CD000DE060297F0F08091790090910801923041
:100CE00041F1A8F4911117C080930C0181E0809329
:100CF000080180917C00807180937C0080917C0051
:100D0000846680937C0081E00E94D80602C0933004
:100D1000F1F07894089580930B0182E080930801AC
:100D200080917C00807180937C0080917C00826641
:100D3000E8CF8093090183E08093080180917C00D3
:100D4000807180937C0080917C008366DACF8093F1
:100D50000A011092080180917C00807180937C00D0
:100D600080917C008566CDCF8091B10085608093B5
:100D7000B10080917000816080937000EDE0F1E03F
:100D80008AE011928A95E9F70895F89490E0DC01E1
:100D9000A35FBE4F2C91211107C0880F991FFC0142
:100DA000E95EFE4F1082118281E08C937894089561
:100DB000E82FF0E0E35FFE4F10820895E82FF0E0A7
:100DC000EE0FFF1FE95EFE4F8081918108958F93A2
:100DD0008FB78F939F93AF93BF93EF93FF9382E867
:100DE0008093B200ADE0B1E0E7E1F1E08D918130B8
:100DF00029F480819181019680839183329681E0EC
:100E0000A731B80799F7FF91EF91BF91AF919F91EB
:100E10008F918FBF8F91189587E68093C4001092B1
:100E2000C5008091C20086608093C2008091C1009D
:100E300088698093C100259A2D9A08958F93809197
:100E4000C60080932B018F911895F89489E00E9439
:100E5000C50689E00E94DE068B3F904060F089E085
:100E60000E94D80680912B01833301F130F4813345
:100E700069F08233A1F0789408958433E1F780918A
:100E8000C00085FFF8CF80910A0106C08091C000A4
:100E900085FFF1CF809109018093C600ECCF80914E
:100EA000C00085FFE8CF80910B01F6CF8091C00094
:100EB00085FFE1CF80910C01EFCFECE2F1E08CE017
:100EC00011928A95E9F70895F894E82FF0E0E45D2F
:100ED000FE4F8081811102C081E080837894089563
:100EE000F894E82FF0E0E45DFE4F8081823021F439
:100EF0001082789481E00895789480E00895F894C1
:100F0000ECE2F1E092E08191823041F4DF011E9247
:100F100081E0E833F807B9F7789408958130C1F794
:100F2000DF019E93F5CF10923F0110923E0181E0C8
:100F300080933D0192E090933C019093380180931F
:100F40003A010895CF93DF93EC01683011F06430DB
:100F500079F48881813078F488E00E9464071092E7
:100F6000010110923F0182E080933C0181E088837F
:100F7000DF91CF91089511F489E0EFCF823079F7B6
:100F800085E0683051F384E0E8CFF89484E00E9473
:100F9000C50684E00E94DE06079738F089B18C70A0
:100FA00080933B0184E00E94D80680913F0181300C
:100FB00009F441C0823009F445C0811119C0809103
:100FC0003A01259A8130B1F42D9A85E00E94C50638
:100FD00085E00E94DE068536904050F085E00E9454
:100FE000D80610923A01809139018F5F80933901C0
:100FF000789408952D9885E00E94C50685E00E94AA
:10100000DE06813A9040A0F385E00E94D80681E098
:1010100080933A0190913901809138019813E8CF7B
:101020001092390180913C01813011F0823001F73A
:1010300080933F01DDCF60913B018DE391E00E9401
:10104000A207D6CF90913B01983019F510923F013D
:1010500080933C0190913E01913071F0923089F083
:10106000911107C081E08093380180933D01809306
:101070003E0110923B01BCCF8093380110923D019C
:10108000F6CF83E08093380190933D0110923E01AA
:10109000F0CF943009F0ACCF10923F0191E09093E3
:1010A0003C0180933801E5CF80918100826080937C
:1010B0008100219A809180008168809380008091D6
:1010C0008100886080938100229A809180008162F3
:1010D00080938000809181008860809381000895D2
:1010E000F89470E0709389006093880050E050930A
:1010F0008B0040938A008730910570F48354974F9A
:10110000FC010C949C08289A5F985C9A5E9804C035
:1011100028985F9A5C985E9A789408952898F4CFFE
:10112000289A5F985C98F2CF28985F9AEECF289A19
:101130005F98F0CF2898F5CFEE0FFF1F0590F49140
:10114000E02D0994F894FFCFB100D3001F016E0188
:10115000AD01DD0111028902EA02160334035103D5
:1011600068038103A003AB03FA034A048A04A204C0
:101170004805ED050A0622064206830888088E08FF
:0811800090089A0894089708F2
:02118800010163
:00000001FF
