:100000000C9434000C9451000C9451000C94510049
:100010000C9451000C9451000C9451000C9451001C
:100020000C9451000C940F070C9451000C94510047
:100030000C9451000C9451000C9451000C945100FC
:100040000C9451000C9451000C9446070C945100F0
:100050000C9451000C9451000C9451000C945100DC
:100060000C9451000C94510011241FBECFEFD4E02A
:10007000DEBFCDBF11E0A0E0B1E0E2E7F1E102C0F8
:1000800005900D92A230B107D9F721E0A2E0B1E0CE
:1000900001C01D92A034B207E1F70E9469000C94E0
:1000A0009E080C94000084B1876084B98AB1806D89
:1000B0008AB98BB18C608BB987B187B980917C008C
:1000C000856680937C0080917A00876E80937A00A9
:1000D0000895F8940E9485070E94DC060E947C081F
:1000E0000E9453000E94340778940E94BB070E942C
:1000F00092000E94810680910001813011F40E94DB
:1001000008030E94A8040E948A060E9498000E9488
:10011000A7070E944D0780910101813061F70E947D
:10012000ED07E9CF1092020183E080930301089567
:10013000F89482E00E94ED0682E00E94060707978D
:1001400038F086B183708093030182E00E9400073B
:10015000E0910201E830F8F4F0E0E056F74F0C943B
:10016000980882E00E949807803021F083E0809315
:10017000020111C083E00E949807803011F082E0F4
:10018000F6CF81E00E949807803039F081E08093BB
:100190000201259A2D9A789408950E94980780303C
:1001A000D1F386E0E4CF28988BB18F728BB98BB1F5
:1001B000806C8BB98EE690E09093890080938800E4
:1001C00090938B0080938A0090910B01943620F4D9
:1001D00080910C01843600F188E00E94ED0688E0F1
:1001E0000E9406078538934030F087E08093020133
:1001F00088E00E94000780910301833060F6289810
:100200008BB18F728BB9259A2D9886E0809302016D
:1002100088E00E940007BFCF9E3230F08E3250F44B
:10022000259A2D9882E0E2CF8E3220F0259A2D98E3
:1002300083E0DCCF809109018E3220F0259A2D9841
:1002400084E0D4CF80910A018E32A8F2259A2D98AD
:1002500085E0CCCF28988BB18F728BB98BB1806C35
:100260008BB98EE690E090938900809388008CE3B0
:1002700090938B0080938A0090910B0180910C01E8
:100280009E3278F08E3208F49EC181E080930201A4
:1002900083E00E94000788E00E940007259A2D9ABB
:1002A0001BC0843658F088E00E94ED0688E00E946A
:1002B00006078538934080F087E0E8CF9D3209F447
:1002C00085C18D32C9F0C0F083E0809302010E94A5
:1002D000000788E00E94000780910301833008F046
:1002E0005ACF28988BB18F728BB983E00E94000798
:1002F00088E00E94000755CF09F468C184E080932C
:10030000020183E0E4CF28988BB18F728BB98BB157
:10031000806C8BB98CE390E0909389008093880087
:100320008EE690938B0080938A0090910B018091D0
:100330000C019E3250F08E3208F0A7CF943608F0B0
:10034000B2CF8D3259F082E0DACF843608F0ABCFED
:100350009D3221F08D3210F485E0D1CF83E00E94F0
:10036000ED0683E00E940607893E934008F4B4CF6F
:1003700088E00E9406078438934030F488E00E94A9
:100380000607892B09F0A8CF83E00E94000788E0C8
:100390000E9400071092020186E037C128988BB1B5
:1003A0008F728BB98BB180698BB987E390E09093A2
:1003B00089008093880090938B0080938A008091BD
:1003C0000901823578F01092020187E00E948C07C3
:1003D00080910301833008F0DECE28988BB18F72B4
:1003E0008BB9DFCE80910B018D3271F068F0809176
:1003F0000C018D3210F482E00DC051F381E0809346
:100400000201259A2D9AE4CF19F380910C018E32C6
:10041000F8F283E080930201DBCF8BB18F728BB94E
:10042000289A5E9A87E390E09093890080938800F1
:1004300090938B0080938A0080910A01823520F08E
:100440001092020186E0C2CF80910B018D32E8F25A
:1004500009F4BECF80910C018D3209F078F609F4D1
:10046000B7CFC9CF80910301813079F583E00E9435
:10047000ED0683E00E940607459780F0289A5C9A73
:100480008DE290E0909389008093880088E79093B4
:100490008B0080938A0083E00E94000780E00E9426
:1004A000ED0680E00E9406078F359140A8F180910B
:1004B0000301833088F11092020186E00E948C07CC
:1004C00080E00E94000783E0A4CE823091F483E0B4
:1004D0000E94ED0683E00E9406074597F8F2289AED
:1004E0005C9A88E790E090938900809388008DE281
:1004F000CECF8111D3CF83E00E94ED0683E00E942E
:100500000607459758F2289A5C9A8CE890E09093F9
:10051000890080938800BBCF80E00E9406078F355A
:10052000914008F438CE80910301833008F033CE37
:1005300028988BB18F728BB91092020180E00E94D3
:10054000000783E00E94000781E08093010180930F
:10055000000121CE28988BB18F728BB98BB1806C42
:100560008BB986E990E090938900809388009093FE
:100570008B0080938A0080910B018D3280F49091E2
:100580000C019D3260F428988BB18F728BB9259A3B
:100590002D981092020186E00E948C07FCCD90916C
:1005A0000301933008F0F7CD843608F0F4CD809144
:1005B0000C01843608F0EFCD28988BB18F728BB97F
:1005C000259A2D98EECD943608F06DCE83E00E94EA
:1005D000ED0683E00E940607893E934008F47CCE36
:1005E00088E00E9406078438934030F488E00E9437
:1005F0000607892B09F070CE83E00E94000788E08F
:100600000E9400071092020187E00E948C0764CECE
:10061000F894E0910501EA3078F4F0E0E855F74FFE
:100620000C94980885E00E949807803039F087E0A4
:1006300080930501109204017894089584E00E944B
:100640009807803039F087E08093050181E080933E
:100650000401F2CF88E00E949807803029F087E0FB
:100660008093050182E0F3CF89E00E9498078030F3
:1006700019F387E08093050183E0E9CF28988BB1D7
:10068000806C8BB910928900109288008AE590E006
:1006900090938B0080938A0086E00E94ED0686E0AE
:1006A0000E940607893C904038F283E08093050160
:1006B00086E00E940007C0CF28988BB18F728BB95B
:1006C0008BB1806C8BB98AE590E090938900809320
:1006D000880010928B0010928A0086E00E94ED063E
:1006E00086E00E940607823E904008F4A5CF84E091
:1006F000DDCF82E890E0909389008093880086E4C3
:1007000090938B0080938A0086E00E94ED0686E03D
:100710000E9406078D3B924008F48ECF85E0C6CF3D
:1007200086E490E0909389008093880082E890931B
:100730008B0080938A0086E00E94ED0686E00E948E
:1007400006078D3B924008F477CF86E08093050141
:10075000B0CF82E890E09093890080938800109257
:100760008B0010928A0086E00E94ED0686E00E94CF
:1007700006078536904008F45FCF81E00E948C0721
:1007800086E00E940007109205011092000154CFEC
:10079000109289001092880082E890E090938B007C
:1007A00080938A00E0CF86E00E94ED0686E00E94FA
:1007B00006078838934190F086E00E940007259A4A
:1007C0002D9880910401823019F130F481111EC0FE
:1007D00081E08093050102C08330E1F086E00E9451
:1007E0000607803F2AE0920739F1C8F4883027E0F5
:1007F000920711F188F4803223E09207E9F0883EF5
:10080000934009F019CF259A2D9816CF82E0E1CFB9
:1008100089E0DFCF88E0DDCF803D9740F2CF803A9E
:100820002FE0920781F358F4883B2BE0920759F3AD
:10083000883D9E4009F000CF259A2D9AFDCE803C40
:100840009241F8CF28988BB1806C8BB98EEB90E0F9
:10085000909389008093880088EC90938B0080931C
:100860008A0086E00E94ED0686E00E940607893C29
:10087000904080F190910C0180910B019E3268F0C4
:100880008D3228F486E00E94000782E017C071F0E4
:1008900086E00E94000781E011C08E3238F09D3260
:1008A00029F086E00E94000783E008C080910A01D9
:1008B000873338F086E00E94000786E00E948C07AC
:1008C00062CF80910901873328F086E00E940007FB
:1008D00087E0F4CF86E00E9406078D32914008F44D
:1008E000ABCEE8CF28988BB1806C8BB988E290E0D2
:1008F000909389008093880082E390938B0080938B
:100900008A0086E00E94ED0686E00E9406078B3F83
:10091000904098F090910C0180910B019E3298F0DC
:100920008D3208F4AFCF09F0B3CF80910A0187333D
:1009300008F680910901873340F686E00E94060799
:10094000813B9440CCCF8E3280F39D3271F3A9CF9E
:10095000F894E0910701E73088F4F0E0EE54F74FA7
:100960000C94980886E00E949807803049F081E056
:100970008093070180930601259A2D987894089515
:1009800087E00E9498078030C9F382E080930701D6
:1009900081E0F0CF87E00E94ED0680910601813072
:1009A00009F06CC028988BB18F728BB983E00E94DC
:1009B000ED0683E00E940607459788F0289A5E9A24
:1009C00087E390E0909389008093880090938B0058
:1009D00080938A0083E00E940007109206018091B4
:1009E0000A01823508F457C088E00E94ED0688E0CD
:1009F0000E9406078935924080F083E00E9400073C
:100A000087E00E94000788E00E94000728988BB1C9
:100A10008F728BB983E0809307018091030183304B
:100A2000B0F480910701803091F028988BB18F72DB
:100A30008BB983E00E94000787E00E94000788E0EE
:100A40000E9400071092070180E00E948C0787E057
:100A50000E940607893E934008F490CF87E00E94E9
:100A6000000788E00E94000783E00E94000782E000
:100A70008093070181E08093060180CF289A5E9AD7
:100A800087E390E0909389008093880090938B0097
:100A900080938A00A4CF80910C018E3278F083E09D
:100AA0000E94000788E00E94000787E00E9400077C
:100AB0001092070182E00E948C07AFCF80910B015A
:100AC0008E3208F4AACF83E00E94000787E00E94DC
:100AD000000788E00E9400071092070183E0EBCF37
:100AE00087E00E94ED06809106012898813009F088
:100AF00069C08BB18F728BB983E00E94ED0683E0F1
:100B00000E940607459790F08BB180698BB987E307
:100B100090E0909389008093880090938B0080935D
:100B20008A0083E00E94000710920601809109016B
:100B3000823508F455C088E00E94ED0688E00E94E6
:100B400006078935924080F083E00E94000787E025
:100B50000E94000788E00E94000728988BB18F72DE
:100B60008BB984E080930701809103018330B0F456
:100B700080910701803091F028988BB18F728BB9EA
:100B800083E00E94000787E00E94000788E00E943F
:100B900000071092070180E00E948C0787E00E9406
:100BA0000607893E934008F4E9CE87E00E940007DB
:100BB00088E00E94000783E00E94000781E08093A4
:100BC000070159CF8BB180698BB987E390E090938F
:100BD00089008093880090938B0080938A00A6CF31
:100BE00080910B018E3278F083E00E94000788E04C
:100BF0000E94000787E00E9400071092070183E02F
:100C00000E948C07B1CF80910C018E3208F4ACCFDA
:100C100083E00E94000787E00E94000788E00E94AE
:100C200000071092070182E0EBCF289A5C9A8CE8CB
:100C300090E0909389008093880090938B0080933C
:100C40008A0083E00E94ED0683E00E940607873950
:100C5000904008F493CE85E08093070183E00E94E2
:100C600000078CCE289A5C9A8CE890E090938900DB
:100C70008093880090938B0080938A0083E00E9489
:100C8000ED0683E00E9406078739904008F476CE8F
:100C900086E0E2CF80E590E0909389008093880021
:100CA00082E890938B0080938A0083E00E94ED0697
:100CB00083E00E9406078F35914008F45FCE81E003
:100CC0008093070183E00E94000728988BB18F7200
:100CD0008BB954CE82E890E090938900809388008D
:100CE00080E590938B0080938A0083E00E94ED065C
:100CF00083E00E9406078F35914008F43FCE82E0E2
:100D0000DFCF10920B0110920C011092090110928A
:100D10000A010895F89481E00E94ED0681E00E94A6
:100D200006070297F0F080917900909108019230C7
:100D300041F1A8F4911117C080930C0181E08093D8
:100D4000080180917C00807180937C0080917C0000
:100D5000846680937C0081E00E94000702C093308B
:100D6000F1F07894089580930B0182E0809308015C
:100D700080917C00807180937C0080917C008266F1
:100D8000E8CF8093090183E08093080180917C0083
:100D9000807180937C0080917C008366DACF8093A1
:100DA0000A011092080180917C00807180937C0080
:100DB00080917C008566CDCF8091B1008560809365
:100DC000B10080917000816080937000EDE0F1E0EF
:100DD0008AE011928A95E9F70895F89490E0DC0191
:100DE000A35FBE4F2C91211107C0880F991FFC01F2
:100DF000E95EFE4F1082118281E08C937894089511
:100E0000E82FF0E0E35FFE4F10820895E82FF0E056
:100E1000EE0FFF1FE95EFE4F8081918108958F9351
:100E20008FB78F939F93AF93BF93EF93FF9382E816
:100E30008093B200ADE0B1E0E7E1F1E08D91813067
:100E400029F480819181019680839183329681E09B
:100E5000A731B80799F7FF91EF91BF91AF919F919B
:100E60008F918FBF8F91189587E68093C400109261
:100E7000C5008091C20086608093C2008091C1004D
:100E800088698093C100259A2D9A08958F93809147
:100E9000C60080932B018F911895F89489E00E94E9
:100EA000ED0689E00E9406078B3F904060F089E0E4
:100EB0000E94000780912B01833301F130F48133CC
:100EC00069F08233A1F0789408958433E1F780913A
:100ED000C00085FFF8CF80910A0106C08091C00054
:100EE00085FFF1CF809109018093C600ECCF8091FE
:100EF000C00085FFE8CF80910B01F6CF8091C00044
:100F000085FFE1CF80910C01EFCFECE2F1E08CE0C6
:100F100011928A95E9F70895F894E82FF0E0E45DDE
:100F2000FE4F8081811102C081E080837894089512
:100F3000F894E82FF0E0E45DFE4F8081823021F4E8
:100F40001082789481E00895789480E00895F89470
:100F5000ECE2F1E092E08191823041F4DF011E92F7
:100F600081E0E833F807B9F7789408958130C1F744
:100F7000DF019E93F5CF10923F0110923E0181E078
:100F800080933D0192E090933C01909338018093CF
:100F90003A010895CF93DF93EC01683011F064308B
:100FA00079F48881813078F488E00E948C0710926F
:100FB000010110923F0182E080933C0181E088832F
:100FC000DF91CF91089511F489E0EFCF823079F766
:100FD00085E0683051F384E0E8CFF89484E00E9423
:100FE000ED0684E00E940607079738F089B18C70FF
:100FF00080933B0184E00E94000780913F01813093
:1010000009F441C0823009F445C0811119C08091B2
:101010003A01259A8130B1F42D9A85E00E94ED06BF
:1010200085E00E9406078536904050F085E00E94DA
:10103000000710923A01809139018F5F8093390146
:10104000789408952D9885E00E94ED0685E00E9431
:101050000607813A9040A0F385E00E94000781E0F6
:1010600080933A0190913901809138019813E8CF2B
:101070001092390180913C01813011F0823001F7EA
:1010800080933F01DDCF60913B018DE391E00E94B1
:10109000CA07D6CF90913B01983019F510923F01C5
:1010A00080933C0190913E01913071F0923089F033
:1010B000911107C081E08093380180933D018093B6
:1010C0003E0110923B01BCCF8093380110923D014C
:1010D000F6CF83E08093380190933D0110923E015A
:1010E000F0CF943009F0ACCF10923F0191E0909393
:1010F0003C0180933801E5CF80918100826080932C
:101100008100219A80918000816880938000809185
:101110008100886080938100229A809180008162A2
:101120008093800080918100886080938100089581
:10113000EE0FFF1F0590F491E02D0994F894FFCF76
:10114000B100D3002A018301CE010D023202AA02AE
:1011500012033E035C0379039003A903C803D3037E
:1011600022047204B204CA047005150632064A0647
:021170006A060D
:02117200010179
:00000001FF
