:100000000C9434000C9451000C9451000C94510049
:100010000C9451000C9451000C9451000C9451001C
:100020000C9451000C94C4010C9451000C94510098
:100030000C9451000C9451000C9451000C945100FC
:100040000C9451000C9451000C944D020C945100EE
:100050000C9451000C9451000C9451000C945100DC
:100060000C9451000C94510011241FBECFEFD4E02A
:10007000DEBFCDBF11E0A0E0B1E0EAE9FAE002C0E6
:1000800005900D92A83DB107D9F721E0A8EDB1E0A8
:1000900001C01D92AF3FB207E1F70E9469000C94C6
:1000A0004B050C94000084B1876084B98AB1806DDF
:1000B0008AB98BB18C608BB987B187B980917C008C
:1000C000856680937C0080917A00876E80937A00A9
:1000D0000895CDB7DEB7C85BD0400FB6F894DEBF49
:1000E0000FBECDBF0E9453000E943B020E949101AF
:1000F0000E94750184E5E4E8F1E09E012B593F4F31
:10010000D90101900D928A95E1F763E570E0C9018C
:100110000E94540289B199B1A12CB12C85017E01B4
:100120009FEFE91AF90A99B082FF1FC092FC1DC027
:100130000395037010E01F920F9380E091E09F936E
:100140008F931F9287E18F93FF92EF920E94630239
:1001500065E170E0C7010E9454028AE00E94A2019A
:100160000FB6F894DEBF0FBECDBF0230110509F403
:100170003FC00330110509F494C001301105A1F509
:100180008AE00E94BB01843F914080F10E94E90116
:100190008091FB011F928F938091FD011F928F939D
:1001A0008091FC011F928F938091FA011F928F938F
:1001B00087E191E09F938F931F9284E68F93FF9244
:1001C000EF920E94630260E470E0C7010E94540253
:1001D0008AE00E94B5018AE00E94A2010FB6F8945D
:1001E000DEBF0FBECDBF02C000E010E0892D9BCF67
:1001F0008AE00E94BB010297C8F380918800909129
:100200008900B11451F18639904089F580918A00B6
:1002100090918B008639904051F5809188009091A3
:1002200089000197909389008093880080918A00CB
:1002300090918B00019790938B0080938A00B12C52
:10024000A1102AC05F9A28985E9A5C988AE00E9462
:10025000B5018AE00E94A201C9CF892BF1F68091F5
:100260008A0090918B00892BC1F681E0A8268091AD
:10027000880090918900019690938900809388006E
:1002800080918A0090918B00019690938B008093CF
:100290008A00BB24B394D4CF5F98289A5C9A5E9866
:1002A000D5CF8AE00E94BB01843F914008F49ECFE5
:1002B00086B196B126B136B191FBCC24C0F88C2121
:1002C0001F928F93822F832381701F928F938CE5CF
:1002D00091E09F938F931F9284E68F93FF92EF920A
:1002E0000E94630265E270E070CF809181008260BD
:1002F00080938100219A80918000816880938000A2
:1003000080918100886080938100229A8091800092
:100310008162809380008091810088608093810059
:1003200008958091B10085608093B1008091700044
:10033000816080937000E8EDF1E08BE011928A9586
:10034000E9F70895F89490E0DC01A852BE4F2C9193
:10035000211107C0880F991FFC01ED51FE4F10823B
:10036000118281E08C9378940895E82FF0E0E852B0
:10037000FE4F10820895E82FF0E0EE0FFF1FED51C1
:10038000FE4F8081918108958F938FB78F939F93B4
:10039000AF93BF93EF93FF9382E88093B200A8EDF1
:1003A000B1E0E3EEF1E08D91813029F4808191811B
:1003B000019680839183329681E0A33EB80799F736
:1003C000FF91EF91BF91AF919F918F918FBF8F91CF
:1003D0001895F89481E00E94A20181E00E94BB017F
:1003E0000297F0F0809179009091F901923041F1FB
:1003F000A8F4911117C08093FD0181E08093F90169
:1004000080917C00807180937C0080917C00846668
:1004100080937C0081E00E94B50102C09330F1F02E
:10042000789408958093FC0182E08093F901809193
:100430007C00807180937C0080917C008266E8CF94
:100440008093FA0183E08093F90180917C008071B0
:1004500080937C0080917C008366DACF8093FB01DF
:100460001092F90180917C00807180937C008091D2
:100470007C008566CDCF87E68093C4001092C500CE
:100480008091C20086608093C2008091C10088691B
:100490008093C100259A2D9A08958F938091C6006C
:1004A0008093FE018F911895FC01680F791FE61764
:1004B000F70709F408958091C00085FFFCCF819172
:1004C0008093C600F4CFAEE0B0E0E9E6F2E00C9431
:1004D000240586E08C838B899C8989839A838D8906
:1004E0009E89813020E8920710F080E090E8019723
:1004F0008D839E83CE014996AC016F89788D489794
:100500000E9495024D815E8157FD0BC0EF81F885F9
:100510004E175F070CF4FA012B893C89E20FF31F99
:1005200010822E96E2E00C944005ABE0B0E0EBE9DF
:10053000F2E00C9417055C016B017A01FC01168254
:100540001782838181FFC9C1F5012381F60123FD53
:10055000859123FF81916F01803009F429C1853293
:1005600039F423FD959123FF91916F01953229F480
:10057000B50190E00E948604E7CF30E0712C512C49
:1005800000E0003210F59B32C9F050F49032B9F01F
:100590009332C9F09E3269F506FD0AC1006405C0B8
:1005A0009D3279F0903399F40160F60123FD959125
:1005B00023FF91916F019111E4CF24C00260046088
:1005C000F4CF0860F2CF0061F0CF07FD1BC0892F88
:1005D00080538A30F8F69AE006FF05C0799E800DB8
:1005E0001124782EE2CF599E800D1124582E0062DE
:1005F000DCCF9C3611F40068D8CF9C3409F448C095
:10060000983699F2892F8F7D8554833008F442C043
:10061000933609F464C0933709F468C0933509F43C
:1006200074C0943619F0993609F0A0C0F70107FF9D
:1006300096C081919191A191B1917F010F76B7FF01
:1006400008C0B095A095909581959F4FAF4FBF4F33
:1006500000682AE030E04E014FEF841A940AA401AA
:10066000BC01CD010E94B6048819882E06FFC1C0C6
:10067000802F8E7F871408F0BBC004FF0CC102FDE1
:1006800000C10E7E972C802F867809F4BDC0FEC075
:1006900031E08BCF3030F9F088E0E80EF11C8FE3C9
:1006A000898381E0682E712C4E018FEF881A980A99
:1006B0000F7703FD03C065147104B8F1611476046B
:1006C000D9F5511409F440CFB50180E290E00E94C1
:1006D00086045A94F6CF84E0E80EF11CE0CFF701CF
:1006E0008081898382E0E80EF11CDBCFF7018190E5
:1006F00091907F01672D70E006FD02C06FEF7FEFE4
:10070000C4010E947B043C01D3CFF70181909190FA
:100710007F01672D70E006FD02C06FEF7FEFC4011F
:100720000E9470043C010068C4CFB50180E290E0F3
:100730000E9486045A94BFCFF40107FD859107FFFC
:1007400081914F01B50190E00E94860481E0511033
:1007500001C080E0581A81E0681A7108AFCF81911A
:100760009191A92FAA0FAA0BBA2F67CF102F9537F7
:10077000B9F41F7E2AE030E0F70117FF34C0619121
:100780007191819191917F014E014FEF841A940AEA
:10079000A4010E94B6048819882E1F77012F66CF06
:1007A000197F903799F058F4983599F09F36C1F039
:1007B000F501868197812B96EFE00C9433059837ED
:1007C000B9F704FD04C020E130E0D6CF1061146019
:1007D000FACF04FF02C0102F166020E132E0CCCF28
:1007E00028E030E0C9CF6191719180E090E0CBCFFB
:1007F000082F982C04FF47CFFE01E80DF11D8081E2
:10080000803309F041C0097E03FD0CC000FF4FC0DA
:10081000782C951418F4750C7918952C951408F00B
:1008200048C0952C951408F044C0591804FF43C0E3
:10083000B50180E390E00E94860402FF09C088E5CC
:1008400090E001FD02C088E790E0B5010E948604B7
:100850008714E0F13E018FEF681A780A882D8150E5
:100860004E0192E0890E911C880E911CF401829138
:100870004F01B50190E00E94860486149704B1F7F9
:1008800020CF972C082FB8CF02FD02C09394BCCF85
:1008900093949394B9CF972C082FF5CEB50180E2AD
:1008A00090E00E94860463946514C0F3B7CF692C6E
:1008B000FBCF512CBBCF802F867851F280E201FD17
:1008C0008BE207FD8DE2B50190E0C0CFB50180E37A
:1008D00090E00E9486047A94BBCF8FEF9FEF6BCF9E
:1008E000FC010590615070400110D8F780959095FB
:1008F0008E0F9F1F0895FC01615070400190011000
:10090000D8F7809590958E0F9F1F08950F931F9392
:10091000CF93DF93182F092FEB018B8181FD09C045
:100920000FEF1FEF812F902FDF91CF911F910F912C
:10093000089582FF14C02E813F818C819D812817EC
:1009400039073CF4E881F981CF01019688839983C6
:1009500010838E819F8101968E839F83E3CFE885EC
:10096000F985812F0995892BA1F3DACFFA01AA27FE
:10097000283051F1203181F1E8946F936E7F6E5FE2
:100980007F4F8F4F9F4FAF4FB1E03ED0B4E03CD090
:10099000670F781F891F9A1FA11D680F791F8A1F73
:1009A000911DA11D6A0F711D811D911DA11D20D0DA
:1009B00009F468943F912AE0269F11243019305D94
:1009C0003193DEF6CF010895462F4770405D419385
:1009D000B3E00FD0C9F7F6CF462F4F70405D4A33D2
:1009E00018F0495D31FD4052419302D0A9F7EACF9A
:1009F000B4E0A6959795879577956795BA95C9F7C9
:100A000000976105710508959B01AC010A2E0694BB
:100A10005795479537952795BA95C9F7620F731F74
:100A2000841F951FA01D08952F923F924F925F92B1
:100A30006F927F928F929F92AF92BF92CF92DF92EE
:100A4000EF92FF920F931F93CF93DF93CDB7DEB753
:100A5000CA1BDB0B0FB6F894DEBF0FBECDBF0994E7
:100A60002A88398848885F846E847D848C849B843E
:100A7000AA84B984C884DF80EE80FD800C811B814C
:100A8000AA81B981CE0FD11D0FB6F894DEBF0FBE7B
:0A0A9000CDBFED010895F894FFCFEB
:100A9A00535749544348494E47204D4F44452054E3
:100AAA004F2025640D0A004C4546543A2025303320
:100ABA00750D0A464F5257415244204C4546543A06
:100ACA0020253033750D0A464F5257415244205261
:100ADA00494748543A20253033750D0A5249474848
:100AEA00543A20253033750D0A0D0A0046495253EF
:100AFA00542053454E534F523A2025640D0A53450C
:100B0A00434F4E442053454E534F523A2025640DCD
:100B1A000A0D0A00444941474E4F53544943532E44
:100B2A00205052455353204120544F205357495483
:100B3A004348205448524F554748204D4F44455347
:100B4A003A2053484152505F544553542C204D4F3C
:100B5A00544F525F544553542C204C494E455F53D1
:080B6A00454E534F520D0A00E5
:00000001FF
